:020000040800F2
:1000000000040020A1010008910C0008910C0008D8
:10001000910C0008910C0008910C0008910C00084C
:10002000910C0008910C0008910C0008F1080008E0
:10003000910C0008910C0008910C0008910C00082C
:10004000910C0008910C0008910C0008910C00081C
:10005000910C0008910C0008910C0008910C00080C
:10006000910C0008910C0008910C0008C1080008D0
:10007000910800086108000831080008010800081C
:10008000D1070008A1070008910C0008910C000896
:10009000910C0008910C0008910C0008910C0008CC
:1000A000910C0008A10D0008910C0008910D0008AA
:1000B00011060008910C0008910C0008910C000832
:1000C000910C0008910C0008910C0008910C00089C
:1000D000910C0008E10A0008910C0008910C00083E
:1000E000910C0008910C0008910C0008910C00087C
:1000F000910C0008910C0008910C0008910C00086C
:10010000910C0008910C0008910C0008910C00085B
:10011000910C0008910C0008910C0008910C00084B
:10012000710700084107000811070008E1060008F0
:10013000B1060008910C0008910C0008910C000811
:10014000910C0008910C0008910C0008910C00081B
:10015000910C0008910C0008910C0008910C00080B
:10016000910C0008910C0008910C0008910C0008FB
:10017000910C0008910C0008910C0008910C0008EB
:10018000910C0008910C0008910C0008910C0008DB
:10019000910C0008910C0008910C0008910C0008CB
:1001A00072B6224880F30988022080F31488BFF3D6
:1001B0006F8F01F00DFB00F01BFE1D481D491E4A0C
:1001C00091423CBF41F8040BFAE71C49174A91429F
:1001D0003CBF41F8040BFAE719491A4A1A4B9A42F4
:1001E0003EBF51F8040B42F8040BF8E70020174912
:1001F000174A91423CBF41F8040BFAE701F0B0FA0C
:1002000001F0DEFA134C144DAC4203DA54F8041B2F
:100210008847F9E701F0E4FA104C114DAC4203DADB
:1002200054F8041B8847F9E701F0C2BA000800201F
:100230005555555500000020000400200004002002
:10024000403F0008000800207408002078080020C3
:10025000E4130020A0010008A0010008A00100088C
:10026000A0010008000000000000000000000000E5
:100270002DE9F04FC1F80CD0C3689D46BDE8F08F62
:10028000002383F311882846A047002001F090F84E
:1002900000F0C6FE00DFFEE70000000000000000E6
:1002A000A2EB0300704700BF02780B78012A28BF39
:1002B0009A42F5D16DE9044540EA0104CDE90267AF
:1002C0006FF0000C4FEA447212B380EA010414F09C
:1002D000070F6AD100F0070420F0070004F00305BF
:1002E00021F007014FEAC505F0E8042314F0040FDC
:1002F000F1E804670CFA05F462EA040266EA04060F
:100300000AD063EA0403624667EA0407664603E02C
:10031000F0E80423F1E8046782FA4CF582EA060467
:10032000A4FA8CF46CBB83FA4CF583EA0705A5FAB2
:100330008CF595B950E9022351E9026782FA4CF530
:1003400082EA0604A4FA8CF483FA4CF583EA0705E2
:10035000A5FA8CF52543DBD09CB92DBAB5FA85F406
:1003600024F0070427FA04F1DDE9026723FA04F315
:1003700003F0FF0001F0FF01FDE80445A0EB0100E0
:10038000704724BAB4FA84F424F0070426FA04F17E
:10039000DDE9026722FA04F202F0FF0001F0FF013A
:1003A000FDE80445A0EB0100704714F0030F3CD1B9
:1003B00010F0030428D150F8082B51F8083B82FABA
:1003C0004CF582EA0305A5FA8CF55DB950F8042CCA
:1003D00051F8043C82FA4CF582EA0305A5FA8CF543
:1003E000002DE8D02DBAB5FA85F424F0070423FADD
:1003F00004F122FA04F202F0FF0001F0FF01FDE82F
:100400000445A0EB010070474FEAC40420F003004C
:1004100050F8082B21F0030151F8083B0CFA04F4C2
:1004200062EA040263EA0403C9E710F003041AD085
:10043000A1EB040120F00300E40750F8042B06D0E0
:100440000FD28B785FFAA2F4E41A06D12BB1CB78E5
:100450005FFAB2F4E41A00D11BB920465DF8104BE4
:10046000704701F1040150F8042BCC0721F003017F
:1004700051F8043B48D824D222F07F4482FA4CF54C
:1004800094EA1325A5FA8CF50AD165B951F8043B15
:1004900084EA0204B4EB036F0ED150F8042BEBE7AF
:1004A0004FEA132355E035F07F454DD10878FDE83C
:1004B0000445C0F1000070474FEA126203F0FF03E9
:1004C00047E002EA1C4482FA4CF594EA1345A5FA87
:1004D0008CF50AD165B951F8043B84EA0204B4EB07
:1004E000034F0CD150F8042BEBE74FEA134330E0F5
:1004F00015EA1C4528D10B884FEA124229E04FEA41
:10050000124203EA1C4324E002F0FF0482FA4CF595
:1005100094EA1365A5FA8CF50AD165B951F8043B44
:1005200084EA0204B4EB032F09D150F8042BEBE763
:100530004FEA13630DE015F0FF0F05D10B684FEA8A
:10054000122223F07F4304E04FF00000FDE8044551
:10055000704712BA1BBA82FA4CF482EA0304A4FA76
:100560008CF5B5FA85F402FA04F203FA04F34FEAC3
:100570001260FDE80445A0EB136070470000000026
:10058000024A136843F0800313607047003801404B
:100590000B0700D4704772B6014B024ADA62FEE7DD
:1005A00038110020F03700080000000000000000B3
:1005B000202383F311880F4B5B6813F4006302D18F
:1005C00083F311887047EFF309834FF0807243F88B
:1005D000042CA3F1200282F30988074A116892696A
:1005E0008968926891428CBF044A054A43F8082CF6
:1005F000704700BF00ED00E03811002091020008B4
:10060000940200080000000000000000000000004C
:100610002DE9F8434FF080452B699B0703D4BDE8D3
:10062000F843FFF7C5BF00272F61202686F3118806
:10063000DFF87890696AD9F81C30D9F828E09A6810
:10064000CEEB0100904209F11C081CD31968DC684C
:1006500072444145C9F82820C1F80480C9F81C102B
:10066000DF6008BFEF6087F311881869A04786F341
:100670001188D9F81C30696AD9F828E09A68CEEB5D
:1006800001008242E2D9434508D07244521A012A3D
:1006900098BF02224FF080430A445A63002383F339
:1006A0001188BDE8F843FFF783BF00BF3811002071
:1006B000094B1968C1F3034159B10848826D10B55F
:1006C0000C045C600AB1C06D9047BDE81040FFF7B4
:1006D0006FBFFFF76DBF00BF00040240D8100020BD
:1006E000094B1968C1F3033159B10848026D10B5BF
:1006F0000C035C600AB1406D9047BDE81040FFF705
:1007000057BFFFF755BF00BF00040240D8100020BC
:10071000094B1968C1F3032159B10848826C10B51F
:100720000C025C600AB1C06C9047BDE81040FFF756
:100730003FBFFFF73DBF00BF00040240D8100020BC
:10074000094B1968C1F3031159B10848026C10B57F
:100750000C015C600AB1406C9047BDE81040FFF7A7
:1007600027BFFFF725BF00BF00040240D8100020BC
:1007700008B5074B196811F00F0105D0054A5960FB
:10078000936B0BB1D06B9847BDE80840FFF710BFE3
:1007900000040240D810002000000000000000000B
:1007A000094B1968C1F3036159B10848026B10B5D0
:1007B0000C065C600AB1406B9047BDE81040FFF743
:1007C000F7BEFFF7F5BE00BF00000240D8100020C2
:1007D000094B1968C1F3035159B10848826A10B531
:1007E0000C055C600AB1C06A9047BDE81040FFF795
:1007F000DFBEFFF7DDBE00BF00000240D8100020C2
:10080000094B1968C1F3034159B10848026A10B590
:100810000C045C600AB1406A9047BDE81040FFF7E5
:10082000C7BEFFF7C5BE00BF00000240D8100020C1
:10083000094B1968C1F3033159B10848826910B5F1
:100840000C035C600AB1C0699047BDE81040FFF737
:10085000AFBEFFF7ADBE00BF00000240D8100020C1
:10086000094B1968C1F3032159B10848026910B551
:100870000C025C600AB140699047BDE81040FFF788
:1008800097BEFFF795BE00BF00000240D8100020C1
:10089000094B1968C1F3031159B10848826810B5B2
:1008A0000C015C600AB1C0689047BDE81040FFF7DA
:1008B0007FBEFFF77DBE00BF00000240D8100020C1
:1008C00008B5074B196811F00F0105D0054A5960AA
:1008D00013680BB150689847BDE80840FFF768BE41
:1008E00000000240D81000200000000000000000BE
:1008F000EFF30983203383F30988002383F31188FE
:10090000704700BF00000000000000000000000071
:1009100010B4202383F31188094C0A4B226819680C
:10092000C31D23F00703891A8B429DBF9B182360C8
:1009300010460020002383F311885DF8044B7047B4
:10094000B40B0020AC0B00200000000000000000F1
:1009500010B4202383F31188037F072B0ED8DFE820
:1009600003F0270D0D2308040D08026A9368013374
:10097000936090E80C001A60026853604FF0FF34F7
:10098000002281680D4B046202771B689A688A42D4
:10099000FBD25A684260036000211060586081F306
:1009A00011885DF8044B7047036A00221A60E5E77E
:1009B000002383F311885DF8044B70473811002041
:1009C00000228168084B10B4044602771B689A68BD
:1009D0008A42FBD25A6862602360204614605C60E1
:1009E0005DF8044B704700BF381100200000000084
:1009F000F8B50B0734D4436A026A4568566817682D
:100A00002D6893E80050DEF8001021F00F01CEF8B9
:100A10000010197C0F2303FA01F1CCF8041031689F
:100A200021F00F013160127C934004467B60A5B138
:100A300004230370A8472378042B0ED0202383F3CC
:100A40001188A3682BB10022A26018461A62FFF732
:100A5000B7FF002383F31188F8BD02232370EDE76D
:100A600072B6024B024ADA62FEE700BF381100207C
:100A7000F037000800000000000000000000000047
:100A8000F8B50468A04221D00E460746002502E0D2
:100A90002468A7421AD0E3683343E36016B12269A1
:100AA0001342F5D06068A368416B027F0B430A2AAA
:100AB00043630CD00B2AEBD1026A13409A42E7D170
:100AC0000562FFF77DFF2468A742E4D1F8BD026A02
:100AD0001342DDD00562FFF773FFF4E7000000006A
:100AE0002DE9F041634D6E6F3768F4693462220777
:100AF00054D1E30546D4A00618D4390601D5220600
:100B000067D463060ED5202383F311886A6CAB6C1F
:100B100058489A4200F08A8027F040073760002347
:100B200083F31188BDE8F041FFF742BD202383F332
:100B30001188B28C6B695FFA82F8002B7FD02B6A28
:100B40006A6A4C4893427FD06A694A490132581C0C
:100B50006A61286283F800802A6AEB699A4262D24D
:100B60004449EB6801F10C02934207D01868C86051
:100B70000021426018461962FFF722FF002383F329
:100B80001188BAE7202383F311883B484FF40071A2
:100B9000FFF776FF002383F31188ACE714F0080F0A
:100BA0000CBF00218021E30748BF41F02001A007CE
:100BB00048BF41F04001620748BF41F480712023E3
:100BC00083F311882C48FFF75BFF002383F3118820
:100BD0008FE7202383F31188AB6C6A6C25489A4217
:100BE0003BD0AA6B2349581C0132AA63A86493F82E
:100BF00000802B6C984201D3CB6B8B641D492B6B0F
:100C000001F13002934207D0186808630021426066
:100C100018461962FFF7D4FE1FFA88F333850023C4
:100C200083F311886DE78B690B6299E7836B002B67
:100C30003FF472AF04301021FFF722FF6CE70E483B
:100C40000421FFF71DFF7AE74269002A3FF47CAFD9
:100C500004308021FFF714FF90E7826B002AC0D098
:100C600004300821FFF70CFF27F0C00343F04003D6
:100C70003360D4E7300B0020340B0020000000006C
:100C8000FEE700BF000000000000000000000000C0
:100C9000FEE700BF000000000000000000000000B0
:100CA000002903DD0749084A02F07AB9202383F3BB
:100CB00011884FF080420023526A83F31188034960
:100CC00002F06EB9FC370008083800081038000838
:100CD000002903DD19491A4A02F062B910B5194911
:100CE000194A82B0044602F05BF920461749184AB7
:100CF00002F056F920461749174A02F051F92046EA
:100D00001649174A02F04CF920461649164A02F0D5
:100D100047F920461549164A02F042F9204615497E
:100D2000154A02F03DF9154B009320461449154A27
:100D3000154B02F035F902B010BD00BFFC370008BA
:100D40001838000820380008343800083C380008FB
:100D50005038000898380008AC380008B838000847
:100D6000CC380008D8380008EC38000804390008EE
:100D70001839000834390008483900089839000843
:100D80007039000888390008943900080000000014
:100D900008B501F0B5FCBDE80840FFF709BC00BF8D
:100DA00008B501F0ADFCBDE80840FFF701BC00BF8D
:100DB0000D4A106870B40368946913600126002519
:100DC000A1685A6006779061257700E01B689A68F1
:100DD0008A42FBD85A6862602360214614605C60D6
:100DE00070BCFFF745BA00BF3811002000000000BA
:100DF00024490B6843F001030B600A68214B9007FC
:100E0000FBD55A6822F003025A605A685A601946A4
:100E10004B681C4A13F00C03FAD1116801F0F90178
:100E200011605360136843F4A02313601168154BDD
:100E30008903FBD55A6A42F001025A621A46516A86
:100E4000104B8807FBD5104A5A604FF404513022EA
:100E5000D9621A631A6842F080721A601968094AE6
:100E60008901FBD5094B12211960536843F0020335
:100E700053605368034903F00C03082BF9D10B6B43
:100E80000B6370470010024000241D000020024048
:100E90002DE9F04FC2F3411C02F0030EC2F38009AA
:100EA000C2F3C1080027C2F3C3124FF00F0B4FF07B
:100EB000010A0FE0046A24EA03031D43056249089E
:100EC00039D04FEA49094FEA88084FEA8C0C4FEABB
:100ED0008E0E0137CB07F2D543680AFA07F423EAEE
:100EE000040343EA0903436003257C00836805FA91
:100EF00004F4E443234043EA08038360C56807F031
:100F00000703254045EA0C059B00BEF1020FC560B2
:100F100002FA03F50BFA03F30FD00668344044EAF3
:100F20000E04072F0460C5D9446A24EA03031D4355
:100F300049084562C5D1BDE8F08F072F0AD8066A77
:100F400026EA03031D43056203681C4044F00204C3
:100F50000460B4E7466A26EA03031D434562F3E7EB
:100F6000F8B51A4D2023AE6983F311880468C3686D
:100F7000B363A04223D0F16B4BB11A68934203D004
:100F80009268914238BF1146DB68002BF5D10346C9
:100F90002268A76BB16020461A6053609C60DF60D6
:100FA000A363FFF70DFD2A68AB6992689B689A42BC
:100FB00001D9FFF7FDFE002383F31188F8BD00235C
:100FC0008360002383F31188F8BD00BF381100202F
:100FD0000E4B0F495A688368F0B44F6F4168C6687A
:100FE000D0E90445D31ADB1BE4180268836045F19D
:100FF00000058B4206F1010688BF43609342C6603C
:10100000C0E9044538BF0360F0BC7047001000E041
:101010003811002000000000000000000000000067
:10102000FFF7C6BE00000000000000000000000046
:10103000074B30B41A689969146808770125636012
:1010400015771C60104630BC9A61FFF711B900BFDC
:101050003811002000000000000000000000000027
:1010600070B5202383F31188324B82689C69002A73
:1010700057D0A16893689942054606D9137F9160BD
:10108000062B35D0072B1FD0ABB12B4603E0996858
:10109000A268914202D31B689D42F8D15A686260EF
:1010A0002360062014605C602562FFF7C1FF002307
:1010B00083F3118870BD92E80A0019601168104628
:1010C0004B60FFF77DFCE0E792E809001860166AC4
:1010D00010684360334602E09868814202D81B687A
:1010E0009E42F9D15968516013600A605A60CCE79A
:1010F00092E809001860166A10684360334602E0FF
:101100009868884202D31B689E42F9D159685160A1
:1011100013600A605A60B268A16893689942ADD8BA
:10112000B3E7A36BC36084600023A06383F31188DB
:1011300070BD00BF3811002000000000000000005A
:1011400038B50E4B9C69636A206204F124059D4208
:1011500007D01A6862621846FFF732FC636AAB4236
:10116000F7D1637F9B0704D1636922691A61226901
:1011700053610F20BDE83840FFF75ABF38110020F7
:101180002DE9F047794B04689B69794AD0F80480CF
:1011900078499A6198B0204601F002FF08AE0DF13F
:1011A0005F072046744901F0FBFE35462368204660
:1011B0005B680DF107010122984768B39DF807109D
:1011C000042925D0082910D07F290ED00D2934D02C
:1011D0001F29EBD9BD42E9D2236820469B68984776
:1011E0009DF807302B700135E0E7B5422046DDD091
:1011F00023689B689847236820469B68202198476E
:1012000023689DF807109B682046013D9847CDE76D
:1012100020465A4901F0C4FE2046594901F0C0FE5B
:10122000202383F3118800215648FFF729FC002072
:10123000FFF786FF18B0BDE8F0875349204601F05C
:10124000AFFE002302A92B7030461D4601F090FA34
:1012500002A9824600200DF10C0901F089FA50B173
:10126000042D1DD049F8040B02A90020013501F01E
:101270007FFA0028F4D118AB03EB850343F8540C34
:10128000BAF1000F8DD050464049FFF70DF870B904
:10129000002DC5D020463E493C4A01F081FE80E742
:1012A00020463C4901F07CFE0023079379E7504635
:1012B0003949FEF7F9FF30B92046C5B13449364AFD
:1012C00001F06EFE6DE7354B1868994618B931E0AC
:1012D00059F8080F70B35146FEF7E6FF0028F7D122
:1012E000D9F80430294603AA2046984759E72C49E3
:1012F00001F056FE294B1A681D463AB1204629498D
:1013000001F04EFE55F8082F002AF7D1B8F1000F72
:101310000BD0D8F8002042B145462046214901F0C3
:101320003FFE55F8082F002AF7D12046164901F054
:1013300037FE36E7B8F1000F0DD0D8F8000050B1F5
:10134000C14602E059F8080F28B15146FEF7ACFF3C
:101350000028F7D1C4E752462046134901F020FE89
:101360002046124901F01CFE1BE700BF3811002087
:10137000A4390008AC390008E4390008EC39000849
:10138000403A0008B00B0020143F0008083A00085B
:10139000FC370008F0390008103A00080008002067
:1013A000183A0008303A0008343A0008383A000881
:1013B000202383F31188FFF7C3BE00BF00000000A5
:1013C000F0B54B1C87B047D03E4C3F4AA36905930C
:1013D0002546012955F81C3F4FF0804C98BF02214B
:1013E000AB42DCF824600492864655D0A26A986825
:1013F00031448A1A824238BFCCF83410824204D970
:101400001B68121A98689042FAD35968029101AF8A
:1014100001930F605F60039299684FF0FF308A1A62
:101420009A6060627046FFF703FE049B83B1E36934
:10143000244ABB4217D0029A019B1360019B0021F2
:10144000AB425A60049103D09968039A0A449A60A7
:10145000A369186A07B0F0BD1A4CFFF7E9FDA3694C
:10146000186A07B0F0BD0199D1610023A9424D600F
:10147000049322D003988B68926A03444FF0804013
:101480008B60416A8A1A9342E2D99B1A012B98BF5A
:1014900002230B444363DBE701AF881900220223D8
:1014A000A662019502950391E7612762CCF83400AA
:1014B000CCF81020CCF80C30B4E74FF08042D36069
:1014C000C6E700BF381100205109000800000000E5
:1014D00069B1084B10B4024644689B69042083E854
:1014E0001400236053605DF8044BFFF769BF4FF0B1
:1014F000FF3070473811002000000000000000009D
:101500002DE9F04F83B004468B4615460193C76919
:101510004FF0200888F311880026B146A3680BF12C
:10152000010A2046FBB16269A368511C013B61615D
:10153000A3609BF800301370236962699A4224BF4C
:10154000E368636107B1B84789F31188013D06F18B
:10155000010612D088F31188A368D3460BF1010A63
:101560002046002BDFD1204601990093FFF7B0FF02
:10157000009B0028D2D083F31188304603B0BDE829
:10158000F08F00BF0000000000000000000000001D
:101590003030FFF7B5BF00BF0000000000000000C2
:1015A00030304FF0FF33FFF7ABBF00BF000000004B
:1015B000F8B504460F461646202383F3118803E04E
:1015C000FFF786FF002819DBA56820463146002D6D
:1015D000F6D06269A368511C013B6161A36017707A
:1015E000236962699A4224BFE3686361E3690BB1CE
:1015F00020469847002080F31188F8BD85F31188B4
:10160000F8BD00BF00000000000000000000000066
:101610003030FFF7CDBF00BF000000000000000029
:1016200030304FF0FF32FFF7C3BF00BF00000000B3
:101630002DE9F04F044683B0894693461D46D0F805
:101640001C80202787F3118800260197B246B8F145
:10165000000F05D02046C04702E0FFF739FFE0B990
:10166000A76820462946002FF7D0A269A368511C1D
:10167000013BA161A360137809F8013B2369A269CA
:101680009A4224BFE368A3618AF311880136B34507
:1016900005D0019B83F31188D9E787F31188304681
:1016A00003B0BDE8F08F00BF0000000000000000A4
:1016B0000C30FFF7BDBF00BF0000000000000000BD
:1016C0000C304FF0FF33FFF7B3BF00BF0000000046
:1016D00070B520230E46044683F31188C3692BB1ED
:1016E000984703E0FFF7F4FE002815DBA5682046C5
:1016F0003146002DF6D0A169A36825694A1C013B3B
:10170000AA42A360A26128BFE368087828BFA3614A
:10171000002383F3118870BD85F3118870BD00BF6D
:101720000C30FFF7D5BF00BF000000000000000034
:101730000C304FF0FF31FFF7CBBF00BF00000000BF
:1017400008B50146202383F311880820FFF738FEEF
:10175000002383F3118808BD000000000000000092
:10176000F0B4114E002506F1800796E81A00A34256
:101770000DD204391A4651F8040F42F8040BA24264
:10178000F9D3DA43144424F0030404342344F26804
:10179000934203D243F8045B9342FBD31036BE421C
:1017A000E3D3F0BC704700BF503A000800000000CF
:1017B000FEE700BF00000000000000000000000085
:1017C000704700BF000000000000000000000000A3
:1017D000704700BF00000000000000000000000093
:1017E000C74BC84C9A6AC8484FF0FF3100222DE918
:1017F000804899629A621D6919611A61DD68D96031
:10180000DA60D96984F8DC2041F08051D96101683F
:1018100041F480710160196A01F44071B1F5007FF3
:1018200089B003D04FF4803119621A62B44B1A6A3E
:10183000170407D41A6A42F400721A621A6A42F450
:1018400000421A62B149B24AB24800230B601946FD
:101850005468216040F8331001330C2B02F114025C
:101860004FF00006F4D1DFF804B3DFF804E3A44B33
:10187000A94CDFF800A3A94DDFF8FC92DFF8FC8249
:10188000A74FDFF8FCC2A74AA7484FF0FF31CBF8BB
:101890000410CEF80410D3F818E04EF0010EC3F88F
:1018A00018E0D4F800E04EF0200EC4F800E05C69C7
:1018B0004FF0904B44F4FC045C61CBF804604FF6AD
:1018C000FF74CBF808A0CBF80C50984DCBF814401F
:1018D000CBF820504FF46E25CBF82450944DCBF824
:1018E00000504FF2C00AC025C9F80450C9F808A03A
:1018F000904DC9F80C504FF0884AC9F814408E4DED
:10190000C9F820A04AF2800AC9F82460C9F800A0EA
:101910004FF07049C8F804604FF0553AC8F8089085
:10192000C8F80C50A5F18865C8F81440BE46C8F840
:101930002060DFF85092C8F82460403DC8F800608D
:10194000CCF80460CCF80860CCF80CA0AAF5AA4A40
:10195000CCF81440AAF1150ACCF820604FF00F081B
:10196000CCF82460CCF800605660DFF81CC2C2F8E6
:101970000890D560DFF81492FF2555611662566213
:10198000C2F800A04660C0F80880C0F80C9044611E
:1019900006624662066007F154004EF804CBB86157
:1019A000786238626548C7F804E04FF001094FF0EB
:1019B000060E634D634A80F8009007F1640407F156
:1019C0000C0C07F1300A4660C66080F810E08561B3
:1019D0001020C7F80CC0C7F810C0FC614FF0200CF5
:1019E0007E61BE62FF6287F80890C7F830A0B863D6
:1019F0006FF03F0082F82503C2F884C1C2F804C02A
:101A0000D869DFF88C81DFF88CE1C7F834A040EAB0
:101A1000090088F80090D861DEF808304A4DFC6370
:101A200043EA090A07F174033B64484BFB64484BE3
:101A30007B67484BBC647C64BB6741F20A04464B3D
:101A4000C8F81C30C8F828404FF0804341F2180411
:101A5000C8F82050C8F82C4040483F65143541F67E
:101A60001F44C8F82450C8F80460C8F80860C8F8D3
:101A7000146008F10C05CEF808A09C624FF0800EAF
:101A80004FF08054D962C8F80C509E61C8F81050CD
:101A90005E63DE605E60C3F81490C3F8009082F865
:101AA0001CE3C2F8804114608660C5682C4BDFF8E7
:101AB000E8E04FF6FF042C402343C360DEF80C300F
:101AC000284C294D6162A2F5514243F08073CEF853
:101AD0000C301368646043EA090313604FF010038D
:101AE000C37704F11C0E80F822C00022002302A854
:101AF0002460CDE906230291C4F81CE04EE000BF4B
:101B000000100240F812002000700040E81200208F
:101B1000203B0008D810002000000140541115643B
:101B2000300B002000100048001400480000505501
:101B300000A8802A150555555555550588120020D1
:101B4000002C014000E100E05C3B0008810500083A
:101B500000380140005125020038004000ED00E04F
:101B60000003FA0538110020080B00200000024095
:101B70000004024000FCC03C00040048000800488B
:101B8000000C0048C000FFFF003B000850555555B1
:101B9000A4120020002004E0F0ED00E0C4F820E0F2
:101BA000039604960596A66024616461A662666742
:101BB00000F03EFD02A8FFF70BFACB49CB4BDFF854
:101BC0005CE3DFF85CC3D4F814A0049A626705F103
:101BD00010002861686121F00701402023F007030D
:101BE00004F13002A063E066CEF80010C048CCF8E3
:101BF000003004F1580104F1540E4FF0020C84F847
:101C00004D60A666666684F84E90A6642464C4F8A7
:101C100044A0AE61AE60CAF81020EE606261A261BD
:101C200084F84C90C4F854E02860A165E165CDF8D3
:101C300004C086F3118862B6A369AE4A9A61D821BE
:101C40004A46AD4BDFF8DCA204F1780000F0B0FCAE
:101C5000AA4B83614FF48071584619228AF800908C
:101C6000CAF80860CAF80460FFF712F9DDF804C08A
:101C7000584661461922FFF70BF9584610211922E0
:101C8000FFF706F9082158461922FFF701F99C4B86
:101C9000CAF808304FF4FA706423CAF80430FFF72A
:101CA0004FFDDAF8083059684B4606F1040919224D
:101CB00051F82900019300F00F0103FA01F120F01F
:101CC0000F00FFF7E5F8DAF80820019B5168DFF80C
:101CD00054B251F8292002F00F0003FA00F022F06C
:101CE0000F02013680B2082E50834FF00109DCD17B
:101CF0008A68DFF834A202F00F0009FA00FE22F031
:101D00000F021FFA8EFEA2F81AE0486800F00F0CCE
:101D100009FA0CFC20F00F001FFA8CFCA0F81AC086
:101D2000086800F00F0C09FA0CFC20F00F001FFAF5
:101D30008CFCA0F81AC0486A00F00F0C09FA0CFCE1
:101D400020F00F001FFA8CFCA0F818C0096A01F0FF
:101D50000F0009FA00F021F00F0180B20883A2F809
:101D600018E00A20FFF7ECFCDBF8082052689268C4
:101D700002F00F0109FA01F122F00F0289B251833A
:101D80003220FFF7DDFCDBF808205268926802F091
:101D90000F0109FA01F122F00F0289B211830A2022
:101DA000FFF7CEFCDBF808205268926802F00F01C2
:101DB00009FA01F122F00F0289B251830A20FFF7DC
:101DC000BFFCDBF808205268926802F00F0109FAA4
:101DD00001F122F00F0289B211830A20FFF7B0FC53
:101DE000DBF808004268926802F00F0109FA01F17D
:101DF00022F00F0289B25183C2788178114341F0F9
:101E00003001002000F0FCFC3146002000F0F8FC1E
:101E10004946002000F0F4FCDBF8082011785278E5
:101E2000114341F00C01002000F0EAFC00200621E3
:101E300000F0E6FCDBF80820324851689268C96877
:101E4000002A01F00F0E0CBF4A4600220EF1100CC2
:101E500002FA0CF614BF4A46002202FA0EF221F0F2
:101E60000F0132438A61022200218BF8002000F02A
:101E700087FD2548282100F083FD4A4623484FF47A
:101E80000061FFF705F821484FF4005140F29A2213
:101E9000FEF7FEFF1D484FF4804140F29A22FEF704
:101EA000F7FF1A484FF4004140F29A22FEF7F0FF84
:101EB00017484FF400611922FEF7EAFF14494FF466
:101EC000006200230A83CAF804308AF800902023B5
:101ED00083F3118898F800300E4AC8F804204B4567
:101EE0000D4E00F0D28221E0EF13002000A0002070
:101EF00011090008203C0008810C0008403C000843
:101F0000C03C0008483C00085C3C00080004004855
:101F1000000C0048103C0008A4120020B40B002064
:101F2000AC0B0020D4120020EC1200209389D8F8CA
:101F3000280003F47061B1F5E06FD8F82C1021F49B
:101F4000706188BF41F4A061C8F82C105189D8F89D
:101F50001C2020F4706041F0040143F4805388BFDA
:101F600040F4A06089B243F007030026C8F82800B7
:101F70001660116053601368022143F04003136040
:101F800088F8001086F31188202383F31188B04B62
:101F9000CAF8043086F3118801200F2100F010FDEB
:101FA0002A208D2100F00CFD2B203E2100F008FDA1
:101FB0002D201E2100F004FD31462C2000F000FDF4
:101FC0002620702100F0FCFC1520402100F0F8FCD8
:101FD00011203D2100F0F4FC142000F051FD860793
:101FE00000F09E82202181F3118803238AF80030BB
:101FF000002282F31188974BDFF8A882D3F800E023
:10200000C8F804304FF49670C8F80000D3F804C044
:1020100081F311889EF80010DCF80430CEF8083007
:102020000129CEF804C000F04C82DEF818301A60A6
:102030005A639A63DA631A649EF81010042984BF05
:102040009A65DA6500225A62DCF80C200192DEF80B
:102050001410DCF80020B1FBF2F1019ADEF8080060
:10206000DCF83C6002F00F0201380139012A996264
:10207000D8625E6000F00782022A0CBF03210021B3
:10208000DCF8142002F00F02012A03D0022A03D147
:1020900041F0200141F01001DCF81C2002F00F0299
:1020A000012A03D0022A03D141F4007141F4807166
:1020B000DCF8242002F00F02012A03D0022A03D107
:1020C00041F4005141F48051DCF8402019624FF096
:1020D000010922F0FF014FF4004C00228526022066
:1020E000C3F814901A61D960C3F844C01E60CEF8DA
:1020F0000C208EF8000082F3118898E80900196816
:10210000554E8B6803FB00F3A6FB03035B0B2026F5
:1021100086F31188C868D1F818E040EA0900C86061
:10212000CEF8343082F31188D8F804301B6886F377
:1021300011889A69D368980705D443F002036FF0B9
:102140000201D3601161002383F31188D8F80430B1
:1021500020221B6882F311889B69DA68D10706D4B4
:1021600042F00102DA601A6902F001021A610023EA
:1021700083F31188202383F311883B7A012B00F02D
:102180007C81BA6F35497B6FA1FB0212120B44F2BE
:1021900040084FF0010C40F22D1E4FF0FF3002219D
:1021A000DA600026C3F80480C3F808C0C3F800E072
:1021B0001862397286F311882948DFF8EC90DFF84D
:1021C000EC80284FDFF8E8A0302140F28232FEF7A1
:1021D0005FFE254A254B12604FF4A471402224482B
:1021E00000F0E6F9234B24484FF4A471402200F09C
:1021F000DFF9224B22484FF4A471402200F0D8F9B5
:10220000204B21484FF4A471402200F0D1F91F4B1C
:102210001F484FF4A471402200F0CAF91D481E4B1C
:102220004FF4A471402200F0C3F94EB1337F0F2B5D
:1022300000F08E8042F21070FFF782FA002EF5D186
:102240001648FEF70DFF164A40F6C70036E000BFFD
:10225000B80B00205C0800205917B7D1B5814E1B80
:102260000008004881020008B00B0020312E000851
:10227000B80B0020712E0008000D0020012F00086F
:10228000480E0020D12D0008900F0020012D0008DD
:1022900078080020C0090020B12C0008180B00208D
:1022A000100B0020280B002081110008D03C0008F2
:1022B000080B00205968814259D81A461368002B30
:1022C000F8D19A48FEF74CFE2B68002BB2D04FF4A1
:1022D0000D6098470028ADD040F6C803C0F800A0B4
:1022E000436000F10806002EA4D0202383F3118858
:1022F000D4F814E0C6F814E006F6A403F3604FF037
:10230000000B012106F128034FF0020C06F1240214
:102310004020B0603461F063C6F8A498C6F8A8887D
:10232000C6F8C47886F81CC0C6F838B0C6F834B011
:10233000C6F818B0B1773046CEF810607262717787
:10234000B362F362666100F003F98BF3118871E701
:10235000202282F31188B37F013BDBB2B37713B93C
:10236000317F0F290FD0002686F3118862E7B1F57F
:102370000D6F20D2196811601E466C4846F8085B44
:10238000FEF7EEFDAFE7717F01F00301012920D0D8
:102390000229E8D17169306908613069416183F3CC
:1023A0001188316C82F311880A6832600E6083F301
:1023B00011881E463EE71E68C3F8D06803F50D601D
:1023C000A1F50D6140F6C806C3F8D41810605E6030
:1023D000D2E772693169116131694A6183F3118809
:1023E00056F8083C03F1100C604603F1080BCDF8D9
:1023F00004C0FEF735FEDDF804C0A6F108015B4617
:102400009B4504D0994202D81B689B45FAD11A68B3
:102410001AB1914201D31346F2E756F8040C46F87C
:10242000082C196000F1080E56F8082C01EB0E0B71
:1024300093450AD0586800F108021A44914215D019
:102440006046FEF78DFD0026F4E6DBF804B051F897
:102450000E2046F8082C0BEB0002083246F8042C3C
:10246000586800F108021A449142E9D116E90600C1
:102470000244083219605A60E2E72D4A936943F436
:10248000804393617DE61146FAE52A49306A00F0FF
:10249000D7F82949706A00F0D3F8DFF894E0726A3F
:1024A000316ADEF81C00F369D2F804C0496872682A
:1024B0000C3340F48040CEF81C008B60CCF8083020
:1024C00034E51E4B9E4522D119491C4E8869DFF820
:1024D0007890C6F8149040F40060D6F804C0886183
:1024E000C868174B4FF070094FF0007A4FF0006644
:1024F00040F40060C860CA6083F81993C3F880A1F3
:10250000C3F800A083F81B93C3F880611E60DEF857
:1025100018300C4946F668029A61DA61596593E50C
:102520001420032100F014FB5CE500BF180B002011
:1025300000100240F10900089105000888120020EF
:1025400000E100E06868010100A24A040000000008
:10255000144B816870B49D690446A86800228142CA
:1025600022620BD822771B689A689142FBD95A687D
:102570006260236014605C6070BC70472A771A4602
:10258000126891688842FBD95068686001262A6009
:10259000056055602677294620469C6170BCFDF792
:1025A00067BE00BF381100200000000000000000DE
:1025B0002DE9F84F9A4696460446202383F3118866
:1025C000174EDFF86090726924394718002500F132
:1025D000280300F1240C4FF0020B4FF00108C760F4
:1025E00040F801A07D60C7F82090C0F808E00661BF
:1025F00042614577C0F83CE085634563856180F8BA
:102600001CB080F81E801061C0F824C08362C362D1
:102610007061FFF79DFF85F311882046BDE8F88FB4
:1026200038110020810200080000000000000000B6
:10263000014B5B6883607047001000E00000000001
:10264000F0B5284D447C2B68012202FA04F61E42A4
:1026500045D1254A254E42F8341002EBC4045A06EF
:10266000666004D1224C626942F00102626113F497
:10267000786F04D11E4C626942F0020262614268C6
:1026800086681468D0F800E024F00F041460077C1A
:102690000F24BC4033424FF00007CEF804401760CF
:1026A00016D1A9B1817C4A09920001F1604602F17C
:1026B000604202F5614206F5614601F01F01012406
:1026C00004FA01F1A02786F80073C2F880111160A6
:1026D000417C01228A4013432B600020F0BD10464C
:1026E000F0BD00BFE8120020D8100020A412002086
:1026F0000010024000000000000000000000000088
:1027000070B5174DAB691A69DC681440E2B2D24368
:10271000A6071A6104D56B681B690BB12846984758
:10272000600704D56B689B690BB10D48984721077A
:1027300004D56B681B6A0BB109489847E20604D5BB
:102740006B689B6A0BB106489847E30706D56B6830
:102750009B681BB10248BDE87040184770BD00BFC0
:1027600088120020000000000000000000000000AF
:1027700038B50D46044690B1286020460B4901F05B
:1027800017F804442046094900F0EAFF60B1421CF2
:1027900000232A600370237823B1204638BD0C68DB
:1027A000002CEAD1002038BD2860F4E7E03C0008A6
:1027B000F0B400F10B073C460D46B1FBF2F602FB0C
:1027C000161101F13003392BC8BF01F13703DBB219
:1027D00004F8013DB5FBF2F53146002DEDD13A1B71
:1027E000024401E014F8013F00F8013B9042F9D1A6
:1027F000F0BC704700000000000000000000000076
:102800002DE9F84F5C4D012681468A46A846374699
:102810000024AB68221D5B6853F8220000F00F0310
:10282000013406FA03F120F00F000022FEF730FB1E
:10283000082CEED1D8F808305A68536803F00F011D
:1028400007FA01F123F00F0389B21983136803F02B
:102850000F0107FA01F123F00F0389B2598393683E
:1028600003F00F0207FA02F223F00F0392B21A8369
:102870000A20FEF765FFD8F808305A68D2F82CB065
:1028800093682BF00F0103F00F0207FA02F223F016
:102890000F030C6992B25A830A200BF00F0BFEF75C
:1028A0004FFF24FA0BF313F00103B1D11C460127AB
:1028B000AB68314E5B68211D192253F8210000F0EE
:1028C0000F03013420F00F0007FA03F1FEF7E0FADE
:1028D000082C4FF00100EBD1B3685E68736803F019
:1028E0000F0200FA02F123F00F0389B23246598336
:1028F00052F8101B09EA000901F00F0489EA0003ED
:1029000004F1100721F00F0109FA04F9BB4043EA72
:1029100009038B6100234AFA03F111F0010F1168DA
:1029200001F00F0400FA04F421F00F01A4B203F146
:10293000010314BF0C834C83082B02F10402EAD17B
:10294000B368012403F00F0204FA02F223F00F032C
:1029500092B21A830A20FEF7F3FEAB685B689B68AD
:1029600003F00F02944023F00F02A3B253830A2016
:10297000BDE8F84FFEF7E4BED412002000000000CE
:1029800038B5C1F18005002D14DD0B06044604D4D2
:1029900041F080010020FFF733FF217851B1254439
:1029A00001E0AC4207D00120FFF72AFF14F8011F15
:1029B0000029F6D138BD38BD00000000000000003D
:1029C0002DE9F041202787F31188274C63681E8981
:1029D0005A68012505FA06F39BB25383002686F355
:1029E0001188DFF88CE0A84000F07E008EF800002F
:1029F0008EF8011087F31188226A636A5268E16ACF
:102A00005B681A48D4F82880D0604FF0020C03208D
:102A100041F08001C2F804C02070C2F80080C3F801
:102A20000CE0C3F804C019601168DFF848E02943DE
:102A300011601968DEF818E022462943196042F84F
:102A400008EFCEF82020FEF7F3FA86F3118887F31B
:102A5000118863681A895B689540ADB21D8386F35F
:102A60001188BDE8F08100BFA4120020F4120020FC
:102A7000E0120020381100200000000000000000DB
:102A80002DE9F843202787F311882B4C63681989B7
:102A90005A68012505FA01F39BB25383002686F399
:102AA0001188A840DFF894E000F07E0060F07F001D
:102AB000FF238EF800008EF8013087F31188226A18
:102AC000636AA06AE16A52685B68DFF87480C2F8E2
:102AD0000C8040F0800C4FF00209032041F080018F
:102AE000C2F804902070C2F800C0C3F80CE0C3F82C
:102AF000049019601168DFF84CE0294311601968EF
:102B0000DEF818E022462943196042F808EFCEF8B3
:102B10002020FEF78DFA86F3118887F31188636809
:102B20001A895B689540ADB21D8386F3118898F8C9
:102B30000100BDE8F88300BFA4120020E0120020CD
:102B4000E412002038110020000000000000000006
:102B500038B50C460546FFF793FF40EA0401C9B2B9
:102B60002846BDE83840FFF72BBF00BF000000003B
:102B700038B50C460546FFF783FF20EA0401C9B2C9
:102B80002846BDE83840FFF71BBF00BF000000002B
:102B9000F8B50D460446F721022016461F46FFF7FA
:102BA0000FFF04208021FFF7E3FF0A208021FFF7B9
:102BB000CFFF00210120FFF703FFA9B251B14D1E45
:102BC00014FA85F5013C14F8011F0920FFF7F8FEFF
:102BD000AC42F8D101200C21FFF7F2FE0D2080213C
:102BE000FFF7B6FF0420FFF74BFF40F2CF74054616
:102BF00005E0FFF745FF013CA4B205468CB115F096
:102C0000310F4FF00400F4D00D208021FFF7B0FF0A
:102C10000620FFF735FF10F01B0F07D002252846CE
:102C2000F8BD0D208021FFF7A3FFF7E70A20FFF78B
:102C300027FF04460C20FFF723FF10F0070005F0E4
:102C4000010515D0631E00EBC300069B1880CCB1B4
:102C5000102C11D90F2FE1D9102437460920FFF786
:102C60000FFF07F8010BBB1B9BB2A342F6D3D6E7BD
:102C7000069AE3001380EAE7BC42CFD8A4B2002C46
:102C8000EBD1CCE7002FC9D00124E6E7000000001B
:102C9000024B4FF400625A83704700BF00040048A3
:102CA000024B4FF400621A83704700BF00040048D3
:102CB0000C4B0D4D9B690D4A0D4C80B52E469A610B
:102CC000012707E0042B01D10323337040F6FC00F9
:102CD000FEF736FD23699B07F8D52B78022BF1D13F
:102CE0003770F3E738110020F6120020F03C00089E
:102CF000000C004800000000000000000000000080
:102D00002B4B2C4C9B692C4D2C4A80B5A0462C4F4C
:102D10009A612E4607E0042B2BD0022B29D04FF4CA
:102D20007A70FEF70DFD237803F0FD02012AF2D13F
:102D30002B68B3F52A7FF2D2726811688A680A3369
:102D400002FB03F2A7FB02E220203360520B80F368
:102D50001188CB68886943F00103CB60002342638C
:102D600083F311883220FEF7EBFC98F80030042B37
:102D7000D3D12B68B3F5967FD1D9726811688A6870
:102D80000A3B02FB03F2A7FB02023360520B202333
:102D900083F31188CB68886943F00103CB6000237B
:102DA000426383F311883220FEF7CAFCB7E700BF05
:102DB00038110020F6120020280B0020003D0008EA
:102DC0005917B7D10000000000000000000000000B
:102DD000104B114D9B69114A80B5114F9A612E46D7
:102DE0004FF090442369DB0707D52B78012B09D0DE
:102DF00001D3022B01D10123337040F6FC00FEF712
:102E00009FFCEFE73B6913F0020F4FF00203F4D190
:102E1000F2E700BF38110020F6120020143D000830
:102E2000000C00480000000000000000000000004E
:102E300008B5094B094A9B69094C9A614FF48065B2
:102E40002E46668341F28830FEF77AFC258341F2F4
:102E50008830FEF775FCF4E738110020243D0008A7
:102E6000001000480000000000000000000000000A
:102E700008B51A4B1A4A9B691A4C1B4D9A61237864
:102E8000023B032B07D8DFE803F00214020B2B6888
:102E9000B3F5967F17D04FF47A70FEF751FCEEE74A
:102EA000124B1B6913F0020F4FF00403F3D1237090
:102EB000F1E72B68B3F52A7FEDD105230C48237089
:102EC000FEF73EFCE7E7002319460A482370FFF7A8
:102ED00057FD09482821FFF753FDDCE73811002092
:102EE0002C3D0008F6120020280B0020000C0048A2
:102EF00070110100483C00085C3C00080000000024
:102F00001D4B1E4D9B691E4A80B5A8461D4F9A61F8
:102F100009E01D48FEF724F82B78032B14D04FF45A
:102F20007A70FEF70DFC1848FEF79AF82C78002C02
:102F3000EFD100F07DFB064658B113483C70FEF718
:102F40000FF82B78032BEAD144F62060FEF7F8FB4C
:102F5000E5E700F0C5FB013031464FF003030B48B5
:102F60000ABF0B4888F800303146FFF709FD0948D1
:102F70002821FFF705FDCCE738110020F6120020CC
:102F8000403D0008D813002064080020503D000890
:102F9000643D00085C3C00080000000000000000E8
:102FA0000EB42DE9F04F86B00FAD0DF10D0355F8BD
:102FB000049B029503AA9B1A824601934FF00008D6
:102FC000CB469BF800100BF1010379B1252913D0F2
:102FD000DAF800209B469268504690479BF8001014
:102FE00008F101080BF101030029EFD1404606B0BA
:102FF000BDE8F04F03B070479BF801202D2A03BFB6
:103000009BF802200BF102034FF001094FF0000979
:10301000302A03BF5A78013330272027591C002655
:1030200006E02B7804359BF8002003EB40060131C5
:10303000A2F13003DBB2092B8B4606EB8600F2D9F6
:103040002A2AEED02E2A4FF0000143D002F0DF03EF
:103050004C2B4ED0A2F14400342800F2F780DFE878
:1030600010F0EA00F500F500F500F500EA00F500C3
:10307000F500F500F500F500E800F500F500F500B5
:10308000F500F500DD00F500F500F200F500F500B3
:10309000F500F500F500F500F500F500F500F50088
:1030A000A100EA00F500F500F500F500EA00F500E2
:1030B000F500F500F500F500E800F500F500F50075
:1030C0007100F500DD00F500F500F2002B78043505
:1030D00003EB40011BF8012BA2F13003DBB2092BFB
:1030E00001EB8100F4D92A2AF0D002F0DF034C2B47
:1030F000B0D19BF80030002B00F0A880A3F144026F
:103100000BF1010B342A00F2A080DFE802F0949E5C
:103110009E9E9E949E9E9E9E9E929E9E9E9E9E87FC
:103120009E9E9C9E9E9E9E9E9E9E9E9E9E4B949E1E
:103130009E9E9E949E9E9E9E9E929E9E9E1B9E875F
:103140009E9E9C002C685A4B002C08BF1C460435E0
:103150002378002900F09480002B00F0968001393C
:10316000204601E0013903D410F8013F002BF9D1CA
:10317000001B361A431E202726EAE676B9F1000F17
:103180001FD0002B009334DA002E3FF41AAF3446E0
:10319000DAF8003050469B6839469847013CF7D131
:1031A000B0440EE72B688DF80C30019B04351846AF
:1031B0002027013B03AC361A26EAE676B9F1000F68
:1031C000DFD10093C6F10009B9F1000F45D0217895
:1031D0002D2947D04E46DAF8003050469B683946D4
:1031E00098470136F7D1009B002BC9EB0808FFF682
:1031F000E8AEDDF80090DAF8003014F8011B9B68A7
:1032000009F1FF3950469847B9F1FF3FF3D1009BD0
:1032100008F10108002BA8BF9844B5E70A222968E5
:1032200003A80435FFF7C4FA03ABC01A431E03AC6E
:10323000C1E70822F3E72968002905F104052EDB20
:1032400003A80A22EEE71022E9E71A46019B8DF84F
:103250000C20184603AC013BADE7009B002B4E460B
:10326000C7DAAEE6302FB5D1DAF8003050469B68A9
:103270009847009B013B013408F101080093A9E73E
:1032800047F6FE71002B7FF46BAF26EAE676B9F1C4
:10329000000F0BD14FF0FF330093202792E72D232F
:1032A00049428DF80C300DF10D00CAE720276BE77D
:1032B000783D000800000000000000000000000051
:1032C000002902DD0249FFF76BBE0249FFF768BE25
:1032D000803D0008943D0008000000000000000050
:1032E000002925DCF8B5244D95F8DC20142A22D0DD
:1032F00004462248FDF7B4FE20462149FFF750FE60
:1033000000F096F90028FBD100F0EAF9013017D05F
:1033100020461C491C4EFFF743FE00F089F90028A7
:10332000FBD0002333701548BDE8F840FDF718BE08
:103330001649FFF735BE1649BDE8F840FFF730BE25
:1033400095F8DC30104E03EB8307324603CA03EBDB
:10335000470705EB070EE85101331788CEF8041034
:1033600092780C4985F8DC302046AEF808708EF86B
:103370000A20FFF715FED0E7F812002064080020AD
:10338000603E0008A83E0008D8130020803D0008D9
:10339000383E0008843E00080000000000000000E5
:1033A000002931DC2DE9F843194E96F8DC304BB397
:1033B00080464FF0000909EB890509EB45054046B9
:1033C00014494A46FFF7ECFD735D771900245BB1A1
:1033D0002B19334440465A780F49FFF7E1FD013479
:1033E0003B78E4B2A342F3D840460C49FFF7D8FD3E
:1033F00009F1010996F8DC305FFA89F94B45DAD812
:10340000BDE8F883BDE8F8830549FFF7C9BD00BFF3
:10341000F8120020C03E0008CC3E0008143F00080F
:10342000D03E000800000000000000000000000086
:10343000002902DD2549FFF7B3BDF8B5044624484D
:10344000FDF70EFE20462349FFF7AAFD00F0F0F835
:103450000028FBD100F044F9431C31D01E4E96F8F1
:10346000DC70013FFFB2B84286F8DC70024617DA22
:10347000531C03EB830103EB4103334402EB820152
:1034800002EB410219685D68B1500130B118C0B259
:103490004D6042B21D899B7A8B72BA420D81E7DB87
:1034A00020460E49FFF77CFD00F0C2F80028FBD053
:1034B0000B4B074800221A70BDE8F840FDF750BDDD
:1034C00020460849FFF76CFDEEE700BFE03E00082C
:1034D00064080020603E0008F8120020F43E000856
:1034E000D8130020183F0008000000000000000072
:1034F00070B50D460446042105201646FFF738FB3B
:103500000A208021FFF724FB55B1013D54FA85F5CF
:10351000013C14F8011F0920FFF752FAAC42F8D120
:1035200001200321FFF74CFA0520FFF7A9FAFE243A
:10353000024606E0FFF7A4FA631E13F0FF040246FA
:1035400003D053074FF00500F4D52220FFF798FA77
:1035500030702120FFF794FA707070BD00000000F9
:103560002DE9F0418AB004AB04460E4600932025B5
:1035700005AA03A8022105238DF80C408DF80D50F3
:10358000FFF706FB80B99DF814809DF815C09DF8E3
:1035900016E09DF817709DF8185088EA0C0383EA2E
:1035A0000E037B409D4203D0FF200AB0BDE8F081AE
:1035B000702307A807210DF123028DF81D308DF827
:1035C0001C408DF81E808DF81FC08DF820E08DF80E
:1035D00021708DF82250FFF78BFF0DF112030921A6
:1035E00007A8009302460B46FFF7D2FA50B1FF201E
:1035F0009DF815109DF816209DF8173031707270E7
:10360000B370D2E7BDF81230182BF0D19DF81C0032
:103610004307EDD4721E05AB033613F8011B02F805
:10362000011FB242F9D1C0E7000000000000000015
:10363000F0B587B00D20072106ACFFF7C1F9522382
:1036400004F8083D05AE20460096012103AA022396
:10365000FFF79EFA0546B0B10225002330460DF172
:103660001602502702218DF815308DF81470FFF7DF
:103670003FFF042100940B4630463246FFF788FA9C
:10368000284607B0F0BDBDF81430102BE4D1104F20
:103690000D202946FFF794F9791C9320FFF760FF6E
:1036A000430702D404233B70D7E7391D9520FFF769
:1036B00057FF410702D407233B70CEE79720F91D3F
:1036C000FFF74EFF4207C7D40A233B70C5E700BF90
:1036D000D8130020000000000000000000000000DF
:1036E000F0B51A4E96F8DCE0BEF1000F2AD0184D66
:1036F0002F787B1EDBB2013300201D44034604E01B
:103700000130C0B243B273451CDA03EB830203EB12
:103710004203F118F35CBB42F2D18FB10C4A01E0D5
:10372000002BEDD012F8013F11F8014FAA42A3EB94
:103730000403B3FA83F34FEA5313F1D1002BDFD024
:1037400040B2F0BDFF2040B2F0BD00BFF812002033
:10375000D81300200000000000000000000000005E
:1037600030B40478ECB10D78ADB1AC420ED00A465D
:1037700001E09C4209D012F8013F002BF9D110F86A
:10378000014F002CF0D1157800E02546002D08BF30
:10379000002030BC704710F8014F0A46002CE3D1DE
:1037A000F1E7204630BC7047000000000000000038
:1037B00070B40478A4B10E7805464EB1B4420AD074
:1037C0000A4601E09C4206D012F8013F002BF9D1D5
:1037D000281A70BC704715F8014F002CEDD1F7E79F
:1037E0002046F6E700000000000000000000000096
:1037F000444D41206661696C75726500557361675F
:10380000653A2025730D0A0073797374696D65003C
:10381000256C750D0A000000696E666F00000000DF
:103820004B65726E656C3A20202020202020257385
:103830000D0A0000332E312E33000000436F6D70EF
:10384000696C65723A202020202025730D0A000043
:1038500047434320342E392E332032303135303532
:103860003239202872656C6561736529205B41528D
:103870004D2F656D6265646465642D345F392D621A
:1038800072616E6368207265766973696F6E20324B
:1038900032373937375D0000417263686974656398
:1038A000747572653A2025730D0A000041524D76F9
:1038B00037452D4D00000000436F72652056617240
:1038C00069616E743A2025730D0A0000436F7274AB
:1038D00065782D4D34000000506F727420496E667B
:1038E0006F3A2020202025730D0A00004164766184
:1038F0006E636564206B65726E656C206D6F6465C8
:1039000000000000506C6174666F726D3A202020D8
:10391000202025730D0A000053544D3332463330B6
:1039200033784320416E616C6F67202620445350EA
:1039300000000000426F6172643A202020202020A5
:10394000202025730D0A000053544D6963726F6582
:103950006C656374726F6E6963732053544D3332B8
:1039600046332D446973636F7665727900000000F9
:103970004275696C642074696D653A202020257356
:10398000257325730D0A00004A616E2032352032FE
:1039900030313700202D200031313A33343A353779
:1039A000000000007368656C6C0000000D0A43683D
:1039B0006962694F532F5254205368656C6C0A0D2D
:1039C0006D616E75616C20636F6D6D616E642066F4
:1039D0006F7220696E737472756374696F6E730AA7
:1039E0000D00000063683E20000000005E440000FF
:1039F000746F6F206D616E7920617267756D656E91
:103A000074730D0A000000006578697400000000FE
:103A100068656C7000000000436F6D6D616E6473CB
:103A20003A2068656C702065786974200000000099
:103A30002573200025730000203F0D0A00000000C0
:103A40000D0A6C6F676F75740000000000000000C5
:103A5000B43F0008E4130020E4130020E413002026
:103A6000B43F00080000000000000000000000005B
:103A7000B43F00080000000000000000000000004B
:103A8000B43F00080000000000000000000000003B
:103A9000B43F0008000000100000001000000010FB
:103AA000B43F00080000000000000000000000001B
:103AB000B43F00080000000000000000000000000B
:103AC000B43F0008000000000000000000000000FB
:103AD00004000048010000480300004808000048B6
:103AE0000008004801080048020800480308004890
:103AF000000400480A040048060800480708004877
:103B0000A1150008C1160008211600083117000889
:103B1000111600082117000891150008B1160008B9
:103B20000000024008000240010000000000000008
:103B300000000B00000002401C00024002000000D8
:103B40000000000004010C000000024030000240B0
:103B5000040000000000000008020D000000024008
:103B60004400024008000000000000000C030E00AA
:103B70000000024058000240100000000000000059
:103B800010040F00000002406C0002402000000002
:103B900000000000140510000000024080000240F8
:103BA0004000000000000000180611000004024060
:103BB00008040240800000000000000000073800F8
:103BC000000402401C04024000010000000000004C
:103BD00004083900000402403004024000020000E2
:103BE0000000000008093A000004024044040240BA
:103BF00000040000000000000C0A3B00000402402A
:103C0000580402400008000000000000100B3C00B7
:103C100000000000000C00480B0018000007000026
:103C20006D61696E00164318040444080C101418E2
:103C3000001C1D1E0000000000000000000000002D
:103C400069646C650000000042756F6E67696F7291
:103C50006E6F2E20202020200000000043415331B1
:103C600037202020202020202020202000000000BD
:103C70006164646361726400726D76636172640092
:103C8000636F6465730000006D616E75616C0000A8
:103C9000703C0008E1320008783C0008313400082C
:103CA000803C0008A1330008883C0008C1320008AD
:103CB0000000000000000000000000000000000004
:103CC00000000408D03A0008640000000000000072
:103CD000300B0020903C00080000000000000000B5
:103CE00020090000000000000000000000000000AB
:103CF0004C61736572204D616E61676572000000F2
:103D00004D6F746F7220436F6E74726F6C6C65725E
:103D100000000000427574746F6E204D616E616723
:103D200065720000426C696E6B657200506F73695A
:103D300074696F6E204D616E6167657200000000EE
:103D400052464944206D616E616765720000000053
:103D50004163636573736F2056616C69646F2E20D5
:103D6000000000004163636573736F204E656761F7
:103D7000746F2E2000000000286E756C6C29000006
:103D800055736167653A20616464636172640D0A0A
:103D900000000000616464636172643A20616767D7
:103DA00069756E676520756E61206E756F7661202E
:103DB000636172746120616C2073697374656D61F5
:103DC00020646920616363657373690D0A726D769F
:103DD000636172643A2072696D756F766520756EE5
:103DE000612063617274612064616C207369737413
:103DF000656D6120646920616363657373690A0D91
:103E0000636F6465733A206D6F73747261207475AB
:103E1000747469206920636F6469636920616C2030
:103E20006D6F6D656E746F206175746F72697A7AEB
:103E30006174690A0D0000000D0A204E756D6572EF
:103E40006F206D617373696D6F20646920636172A7
:103E50007465207261676769756E746F2E0000006B
:103E60000D0A4176766963696E617265206C612026
:103E7000636172746120616C206C6574746F72652B
:103E80002E0D0A000D0A436172746120696E73651C
:103E90007269746120636F7272657474616D656EAE
:103EA00074652E0D0A0000000D0A436172746120D2
:103EB000676961272070726573656E74650D0A000D
:103EC000436F646963652025643A2000256400001F
:103ED00055736167653A20636F6465730D0A00006E
:103EE00055736167653A20726D76636172640D0A7D
:103EF000000000000D0A436172746120656C696DF9
:103F0000696E61746120636F7272657474616D654E
:103F10006E74652E0D0A00000D0A436172746120F3
:103F20006E6F6E2070726573656E7465206E656C61
:0C3F30002073697374656D612E0D0A002A
:103F400018380008D10C000808380008A10C000837
:103F5000000000000000000040420F00204E000062
:103F6000A12C000801000000912C000800000000B6
:103F70000000000000000000000000000000000041
:103F80000000000000000000000000000000000031
:103F90000000000000000000000000008812002067
:103FA00018080020640800206408002000000000B9
:043FB000000000000D
:04000005080001A14D
:00000001FF
